{
  "contractName": "CarsProject",
  "abi": [
    {
      "anonymous": false,
      "inputs": [
        {
          "indexed": true,
          "internalType": "address",
          "name": "_owner",
          "type": "address"
        },
        {
          "indexed": true,
          "internalType": "address",
          "name": "_approved",
          "type": "address"
        },
        {
          "indexed": true,
          "internalType": "uint256",
          "name": "_tokenId",
          "type": "uint256"
        }
      ],
      "name": "Approval",
      "type": "event"
    },
    {
      "anonymous": false,
      "inputs": [
        {
          "indexed": true,
          "internalType": "address",
          "name": "previousOwner",
          "type": "address"
        },
        {
          "indexed": true,
          "internalType": "address",
          "name": "newOwner",
          "type": "address"
        }
      ],
      "name": "OwnershipTransferred",
      "type": "event"
    },
    {
      "anonymous": false,
      "inputs": [
        {
          "indexed": true,
          "internalType": "address",
          "name": "_from",
          "type": "address"
        },
        {
          "indexed": true,
          "internalType": "address",
          "name": "_to",
          "type": "address"
        },
        {
          "indexed": true,
          "internalType": "uint256",
          "name": "_tokenId",
          "type": "uint256"
        }
      ],
      "name": "Transfer",
      "type": "event"
    },
    {
      "anonymous": false,
      "inputs": [
        {
          "indexed": false,
          "internalType": "uint256",
          "name": "id",
          "type": "uint256"
        },
        {
          "indexed": false,
          "internalType": "string",
          "name": "name",
          "type": "string"
        },
        {
          "indexed": false,
          "internalType": "uint256",
          "name": "vin",
          "type": "uint256"
        }
      ],
      "name": "newCar",
      "type": "event"
    },
    {
      "inputs": [
        {
          "internalType": "address",
          "name": "_owner",
          "type": "address"
        }
      ],
      "name": "CarsByOwner",
      "outputs": [
        {
          "internalType": "uint256[]",
          "name": "",
          "type": "uint256[]"
        }
      ],
      "stateMutability": "view",
      "type": "function",
      "constant": true
    },
    {
      "inputs": [
        {
          "internalType": "address",
          "name": "_approved",
          "type": "address"
        },
        {
          "internalType": "uint256",
          "name": "_tokenId",
          "type": "uint256"
        }
      ],
      "name": "approve",
      "outputs": [],
      "stateMutability": "payable",
      "type": "function",
      "payable": true
    },
    {
      "inputs": [
        {
          "internalType": "address",
          "name": "_owner",
          "type": "address"
        }
      ],
      "name": "balanceOf",
      "outputs": [
        {
          "internalType": "uint256",
          "name": "",
          "type": "uint256"
        }
      ],
      "stateMutability": "view",
      "type": "function",
      "constant": true
    },
    {
      "inputs": [
        {
          "internalType": "uint256",
          "name": "",
          "type": "uint256"
        }
      ],
      "name": "carToOwner",
      "outputs": [
        {
          "internalType": "address",
          "name": "",
          "type": "address"
        }
      ],
      "stateMutability": "view",
      "type": "function",
      "constant": true
    },
    {
      "inputs": [
        {
          "internalType": "uint256",
          "name": "",
          "type": "uint256"
        }
      ],
      "name": "cars",
      "outputs": [
        {
          "internalType": "string",
          "name": "name",
          "type": "string"
        },
        {
          "internalType": "uint256",
          "name": "vin",
          "type": "uint256"
        },
        {
          "internalType": "uint32",
          "name": "rating",
          "type": "uint32"
        },
        {
          "internalType": "uint32",
          "name": "pitTime",
          "type": "uint32"
        },
        {
          "internalType": "uint16",
          "name": "winCnt",
          "type": "uint16"
        },
        {
          "internalType": "uint16",
          "name": "lossCnt",
          "type": "uint16"
        }
      ],
      "stateMutability": "view",
      "type": "function",
      "constant": true
    },
    {
      "inputs": [
        {
          "internalType": "string",
          "name": "_name",
          "type": "string"
        }
      ],
      "name": "createRandCar",
      "outputs": [],
      "stateMutability": "nonpayable",
      "type": "function"
    },
    {
      "inputs": [],
      "name": "isOwner",
      "outputs": [
        {
          "internalType": "bool",
          "name": "",
          "type": "bool"
        }
      ],
      "stateMutability": "view",
      "type": "function",
      "constant": true
    },
    {
      "inputs": [
        {
          "internalType": "uint256",
          "name": "_id",
          "type": "uint256"
        },
        {
          "internalType": "string",
          "name": "_Name",
          "type": "string"
        }
      ],
      "name": "modifyName",
      "outputs": [],
      "stateMutability": "nonpayable",
      "type": "function"
    },
    {
      "inputs": [
        {
          "internalType": "uint256",
          "name": "_id",
          "type": "uint256"
        },
        {
          "internalType": "uint256",
          "name": "_Vin",
          "type": "uint256"
        }
      ],
      "name": "modifyVin",
      "outputs": [],
      "stateMutability": "nonpayable",
      "type": "function"
    },
    {
      "inputs": [
        {
          "internalType": "uint256",
          "name": "_id",
          "type": "uint256"
        }
      ],
      "name": "overtake",
      "outputs": [],
      "stateMutability": "payable",
      "type": "function",
      "payable": true
    },
    {
      "inputs": [
        {
          "internalType": "uint256",
          "name": "_id",
          "type": "uint256"
        },
        {
          "internalType": "uint256",
          "name": "_ckId",
          "type": "uint256"
        }
      ],
      "name": "overtakeCK",
      "outputs": [],
      "stateMutability": "nonpayable",
      "type": "function"
    },
    {
      "inputs": [],
      "name": "owner",
      "outputs": [
        {
          "internalType": "address",
          "name": "",
          "type": "address"
        }
      ],
      "stateMutability": "view",
      "type": "function",
      "constant": true
    },
    {
      "inputs": [
        {
          "internalType": "uint256",
          "name": "_tokenId",
          "type": "uint256"
        }
      ],
      "name": "ownerOf",
      "outputs": [
        {
          "internalType": "address",
          "name": "",
          "type": "address"
        }
      ],
      "stateMutability": "view",
      "type": "function",
      "constant": true
    },
    {
      "inputs": [
        {
          "internalType": "uint256",
          "name": "_id",
          "type": "uint256"
        },
        {
          "internalType": "uint256",
          "name": "_opponentId",
          "type": "uint256"
        }
      ],
      "name": "race",
      "outputs": [],
      "stateMutability": "nonpayable",
      "type": "function"
    },
    {
      "inputs": [],
      "name": "renounceOwnership",
      "outputs": [],
      "stateMutability": "nonpayable",
      "type": "function"
    },
    {
      "inputs": [
        {
          "internalType": "address",
          "name": "_address",
          "type": "address"
        }
      ],
      "name": "setCkContractAddress",
      "outputs": [],
      "stateMutability": "nonpayable",
      "type": "function"
    },
    {
      "inputs": [
        {
          "internalType": "uint256",
          "name": "_fee",
          "type": "uint256"
        }
      ],
      "name": "setOvertakeFee",
      "outputs": [],
      "stateMutability": "nonpayable",
      "type": "function"
    },
    {
      "inputs": [
        {
          "internalType": "address",
          "name": "_from",
          "type": "address"
        },
        {
          "internalType": "address",
          "name": "_to",
          "type": "address"
        },
        {
          "internalType": "uint256",
          "name": "_tokenId",
          "type": "uint256"
        }
      ],
      "name": "transferFrom",
      "outputs": [],
      "stateMutability": "payable",
      "type": "function",
      "payable": true
    },
    {
      "inputs": [
        {
          "internalType": "address",
          "name": "newOwner",
          "type": "address"
        }
      ],
      "name": "transferOwnership",
      "outputs": [],
      "stateMutability": "nonpayable",
      "type": "function"
    },
    {
      "inputs": [],
      "name": "withdraw",
      "outputs": [],
      "stateMutability": "nonpayable",
      "type": "function"
    }
  ],
  "bytecode": "0x60806040526010600155600154600a6200001a919062000293565b600255614650600355655af3107a40006008556000600955603b600a553480156200004457600080fd5b50336000806101000a81548173ffffffffffffffffffffffffffffffffffffffff021916908373ffffffffffffffffffffffffffffffffffffffff16021790555060008054906101000a900473ffffffffffffffffffffffffffffffffffffffff1673ffffffffffffffffffffffffffffffffffffffff16600073ffffffffffffffffffffffffffffffffffffffff167f8be0079c531659141344cd1fd0a4f28419497f9722a3daafe3b4186f6b6457e060405160405180910390a3620002e4565b7f4e487b7100000000000000000000000000000000000000000000000000000000600052601160045260246000fd5b60008160011c9050919050565b6000808291508390505b600185111562000194578086048111156200016c576200016b62000106565b5b60018516156200017c5780820291505b80810290506200018c8562000135565b94506200014c565b94509492505050565b600082620001af576001905062000282565b81620001bf576000905062000282565b8160018114620001d85760028114620001e35762000219565b600191505062000282565b60ff841115620001f857620001f762000106565b5b8360020a91508482111562000212576200021162000106565b5b5062000282565b5060208310610133831016604e8410600b8410161715620002535782820a9050838111156200024d576200024c62000106565b5b62000282565b62000262848484600162000142565b925090508184048111156200027c576200027b62000106565b5b81810290505b9392505050565b6000819050919050565b6000620002a08262000289565b9150620002ad8362000289565b9250620002dc7fffffffffffffffffffffffffffffffffffffffffffffffffffffffffffffffff84846200019d565b905092915050565b61256280620002f46000396000f3fe60806040526004361061011f5760003560e01c8063715018a6116100a0578063b300dacb11610064578063b300dacb146103a1578063ccf502e0146103bd578063f2fde38b146103e6578063f7746e361461040f578063f93968b6146104515761011f565b8063715018a6146102e25780638da5cb5b146102f95780638f32d59b14610324578063908c16961461034f578063aa7ac57d146103785761011f565b8063432849c1116100e7578063432849c1146101d9578063574eea4c146102025780636352211e1461023f5780636a877b751461027c57806370a08231146102a55761011f565b8063083896b814610124578063095ea7b31461014d57806323b872dd1461016957806333ca504b146101855780633ccfd60b146101c2575b600080fd5b34801561013057600080fd5b5061014b600480360381019061014691906119c0565b61047a565b005b61016760048036038101906101629190611a5e565b610562565b005b610183600480360381019061017e9190611a9e565b610680565b005b34801561019157600080fd5b506101ac60048036038101906101a79190611af1565b610764565b6040516101b99190611b2d565b60405180910390f35b3480156101ce57600080fd5b506101d7610797565b005b3480156101e557600080fd5b5061020060048036038101906101fb9190611c8e565b6107fe565b005b34801561020e57600080fd5b5061022960048036038101906102249190611cd7565b610865565b6040516102369190611dc2565b60405180910390f35b34801561024b57600080fd5b5061026660048036038101906102619190611af1565b6109b8565b6040516102739190611b2d565b60405180910390f35b34801561028857600080fd5b506102a3600480360381019061029e9190611af1565b6109f5565b005b3480156102b157600080fd5b506102cc60048036038101906102c79190611cd7565b610a10565b6040516102d99190611df3565b60405180910390f35b3480156102ee57600080fd5b506102f7610a59565b005b34801561030557600080fd5b5061030e610b28565b60405161031b9190611b2d565b60405180910390f35b34801561033057600080fd5b50610339610b51565b6040516103469190611e29565b60405180910390f35b34801561035b57600080fd5b50610376600480360381019061037191906119c0565b610ba8565b005b34801561038457600080fd5b5061039f600480360381019061039a91906119c0565b610dd3565b005b6103bb60048036038101906103b69190611af1565b610ebb565b005b3480156103c957600080fd5b506103e460048036038101906103df9190611cd7565b610f30565b005b3480156103f257600080fd5b5061040d60048036038101906104089190611cd7565b610f85565b005b34801561041b57600080fd5b5061043660048036038101906104319190611af1565b610fa2565b60405161044896959493929190611f08565b60405180910390f35b34801561045d57600080fd5b5061047860048036038101906104739190611fd0565b6110b2565b005b6000600760009054906101000a900473ffffffffffffffffffffffffffffffffffffffff1673ffffffffffffffffffffffffffffffffffffffff1663e98b7f4d836040518263ffffffff1660e01b81526004016104d79190611df3565b61014060405180830381865afa1580156104f5573d6000803e3d6000fd5b505050506040513d601f19601f820116820180604052508101906105199190612071565b9091929394959697985090919293949596975090919293949596509091929394955090919293945090919293509091925090915090508091505061055d83826111a6565b505050565b806005600082815260200190815260200160002060009054906101000a900473ffffffffffffffffffffffffffffffffffffffff1673ffffffffffffffffffffffffffffffffffffffff163373ffffffffffffffffffffffffffffffffffffffff16146105ce57600080fd5b82600b600084815260200190815260200160002060006101000a81548173ffffffffffffffffffffffffffffffffffffffff021916908373ffffffffffffffffffffffffffffffffffffffff160217905550818373ffffffffffffffffffffffffffffffffffffffff163373ffffffffffffffffffffffffffffffffffffffff167f8c5be1e5ebec7d5bd14f71427d1e84f3dd0314c0f7b2291e5b200ac8c7c3b92560405160405180910390a4505050565b3373ffffffffffffffffffffffffffffffffffffffff166005600083815260200190815260200160002060009054906101000a900473ffffffffffffffffffffffffffffffffffffffff1673ffffffffffffffffffffffffffffffffffffffff16148061074b57503373ffffffffffffffffffffffffffffffffffffffff16600b600083815260200190815260200160002060009054906101000a900473ffffffffffffffffffffffffffffffffffffffff1673ffffffffffffffffffffffffffffffffffffffff16145b61075457600080fd5b61075f8383836112c9565b505050565b60056020528060005260406000206000915054906101000a900473ffffffffffffffffffffffffffffffffffffffff1681565b61079f610b51565b6107a857600080fd5b60006107b2610b28565b90508073ffffffffffffffffffffffffffffffffffffffff166108fc479081150290604051600060405180830381858888f193505050501580156107fa573d6000803e3d6000fd5b5050565b6000600660003373ffffffffffffffffffffffffffffffffffffffff1673ffffffffffffffffffffffffffffffffffffffff168152602001908152602001600020541461084a57600080fd5b600061085582611425565b9050610861828261146a565b5050565b60606000600660008473ffffffffffffffffffffffffffffffffffffffff1673ffffffffffffffffffffffffffffffffffffffff1681526020019081526020016000205467ffffffffffffffff8111156108c2576108c1611b63565b5b6040519080825280602002602001820160405280156108f05781602001602082028036833780820191505090505b5090506000805b6004805490508110156109ad578473ffffffffffffffffffffffffffffffffffffffff166005600083815260200190815260200160002060009054906101000a900473ffffffffffffffffffffffffffffffffffffffff1673ffffffffffffffffffffffffffffffffffffffff16141561099a578083838151811061097f5761097e612150565b5b6020026020010181815250508180610996906121ae565b9250505b80806109a5906121ae565b9150506108f7565b508192505050919050565b60006005600083815260200190815260200160002060009054906101000a900473ffffffffffffffffffffffffffffffffffffffff169050919050565b6109fd610b51565b610a0657600080fd5b8060088190555050565b6000600660008373ffffffffffffffffffffffffffffffffffffffff1673ffffffffffffffffffffffffffffffffffffffff168152602001908152602001600020549050919050565b610a61610b51565b610a6a57600080fd5b600073ffffffffffffffffffffffffffffffffffffffff1660008054906101000a900473ffffffffffffffffffffffffffffffffffffffff1673ffffffffffffffffffffffffffffffffffffffff167f8be0079c531659141344cd1fd0a4f28419497f9722a3daafe3b4186f6b6457e060405160405180910390a360008060006101000a81548173ffffffffffffffffffffffffffffffffffffffff021916908373ffffffffffffffffffffffffffffffffffffffff160217905550565b60008060009054906101000a900473ffffffffffffffffffffffffffffffffffffffff16905090565b60008060009054906101000a900473ffffffffffffffffffffffffffffffffffffffff1673ffffffffffffffffffffffffffffffffffffffff163373ffffffffffffffffffffffffffffffffffffffff1614905090565b816005600082815260200190815260200160002060009054906101000a900473ffffffffffffffffffffffffffffffffffffffff1673ffffffffffffffffffffffffffffffffffffffff163373ffffffffffffffffffffffffffffffffffffffff1614610c1457600080fd5b600060048481548110610c2a57610c29612150565b5b90600052602060002090600302019050600060048481548110610c5057610c4f612150565b5b906000526020600020906003020190506000610c6c60646116a0565b9050600a548111610d475782600201600881819054906101000a900461ffff1680929190610c99906121f7565b91906101000a81548161ffff021916908361ffff1602179055505082600201600081819054906101000a900463ffffffff1680929190610cd890612222565b91906101000a81548163ffffffff021916908363ffffffff1602179055505081600201600a81819054906101000a900461ffff1680929190610d19906121f7565b91906101000a81548161ffff021916908361ffff16021790555050610d428683600101546111a6565b610dcb565b82600201600a81819054906101000a900461ffff1680929190610d69906121f7565b91906101000a81548161ffff021916908361ffff1602179055505081600201600881819054906101000a900461ffff1680929190610da6906121f7565b91906101000a81548161ffff021916908361ffff16021790555050610dca836116fc565b5b505050505050565b6014828160048281548110610deb57610dea612150565b5b906000526020600020906003020160020160009054906101000a900463ffffffff1663ffffffff161015610e1e57600080fd5b836005600082815260200190815260200160002060009054906101000a900473ffffffffffffffffffffffffffffffffffffffff1673ffffffffffffffffffffffffffffffffffffffff163373ffffffffffffffffffffffffffffffffffffffff1614610e8a57600080fd5b8360048681548110610e9f57610e9e612150565b5b9060005260206000209060030201600101819055505050505050565b6008543414610ec957600080fd5b60048181548110610edd57610edc612150565b5b9060005260206000209060030201600201600081819054906101000a900463ffffffff1680929190610f0e90612222565b91906101000a81548163ffffffff021916908363ffffffff1602179055505050565b610f38610b51565b610f4157600080fd5b80600760006101000a81548173ffffffffffffffffffffffffffffffffffffffff021916908373ffffffffffffffffffffffffffffffffffffffff16021790555050565b610f8d610b51565b610f9657600080fd5b610f9f8161172f565b50565b60048181548110610fb257600080fd5b9060005260206000209060030201600091509050806000018054610fd59061227e565b80601f01602080910402602001604051908101604052809291908181526020018280546110019061227e565b801561104e5780601f106110235761010080835404028352916020019161104e565b820191906000526020600020905b81548152906001019060200180831161103157829003601f168201915b5050505050908060010154908060020160009054906101000a900463ffffffff16908060020160049054906101000a900463ffffffff16908060020160089054906101000a900461ffff169080600201600a9054906101000a900461ffff16905086565b60038381600482815481106110ca576110c9612150565b5b906000526020600020906003020160020160009054906101000a900463ffffffff1663ffffffff1610156110fd57600080fd5b846005600082815260200190815260200160002060009054906101000a900473ffffffffffffffffffffffffffffffffffffffff1673ffffffffffffffffffffffffffffffffffffffff163373ffffffffffffffffffffffffffffffffffffffff161461116957600080fd5b84846004888154811061117f5761117e612150565b5b9060005260206000209060030201600001919061119d92919061184d565b50505050505050565b816005600082815260200190815260200160002060009054906101000a900473ffffffffffffffffffffffffffffffffffffffff1673ffffffffffffffffffffffffffffffffffffffff163373ffffffffffffffffffffffffffffffffffffffff161461121257600080fd5b60006004848154811061122857611227612150565b5b9060005260206000209060030201905061124181611826565b61124a57600080fd5b6002548361125891906122df565b92506000600284836001015461126e9190612310565b6112789190612366565b90506112b96040518060400160405280600681526020017f4e6f4e616d6500000000000000000000000000000000000000000000000000008152508261146a565b6112c2826116fc565b5050505050565b600660008473ffffffffffffffffffffffffffffffffffffffff1673ffffffffffffffffffffffffffffffffffffffff168152602001908152602001600020600081548092919061131990612397565b9190505550600660008373ffffffffffffffffffffffffffffffffffffffff1673ffffffffffffffffffffffffffffffffffffffff168152602001908152602001600020600081548092919061136e906121ae565b9190505550816005600083815260200190815260200160002060006101000a81548173ffffffffffffffffffffffffffffffffffffffff021916908373ffffffffffffffffffffffffffffffffffffffff160217905550808273ffffffffffffffffffffffffffffffffffffffff168473ffffffffffffffffffffffffffffffffffffffff167fddf252ad1be2c89b69c2b068fc378daa952ba7f163c4a11628f55a4df523b3ef60405160405180910390a4505050565b6000808260405160200161143991906123fd565b6040516020818303038152906040528051906020012060001c90506002548161146291906122df565b915050919050565b60046040518060c00160405280848152602001838152602001600163ffffffff1681526020016003544261149e9190612310565b63ffffffff168152602001600061ffff168152602001600061ffff16815250908060018154018082558091505060019003906000526020600020906003020160009091909190915060008201518160000190805190602001906115029291906118d3565b506020820151816001015560408201518160020160006101000a81548163ffffffff021916908363ffffffff16021790555060608201518160020160046101000a81548163ffffffff021916908363ffffffff16021790555060808201518160020160086101000a81548161ffff021916908361ffff16021790555060a082015181600201600a6101000a81548161ffff021916908361ffff1602179055505050600060016004805490506115b79190612414565b9050336005600083815260200190815260200160002060006101000a81548173ffffffffffffffffffffffffffffffffffffffff021916908373ffffffffffffffffffffffffffffffffffffffff160217905550600660003373ffffffffffffffffffffffffffffffffffffffff1673ffffffffffffffffffffffffffffffffffffffff168152602001908152602001600020600081548092919061165b906121ae565b91905055507ff815b0f555f1a0faf740ff42a7285835d1e31c8a266d8f0b5c0451049f833cdb81848460405161169393929190612448565b60405180910390a1505050565b6000600960008154809291906116b5906121ae565b91905055508142336009546040516020016116d2939291906124ef565b6040516020818303038152906040528051906020012060001c6116f591906122df565b9050919050565b6003544261170a9190612310565b8160020160046101000a81548163ffffffff021916908363ffffffff16021790555050565b600073ffffffffffffffffffffffffffffffffffffffff168173ffffffffffffffffffffffffffffffffffffffff16141561176957600080fd5b8073ffffffffffffffffffffffffffffffffffffffff1660008054906101000a900473ffffffffffffffffffffffffffffffffffffffff1673ffffffffffffffffffffffffffffffffffffffff167f8be0079c531659141344cd1fd0a4f28419497f9722a3daafe3b4186f6b6457e060405160405180910390a3806000806101000a81548173ffffffffffffffffffffffffffffffffffffffff021916908373ffffffffffffffffffffffffffffffffffffffff16021790555050565b6000428260020160049054906101000a900463ffffffff1663ffffffff1611159050919050565b8280546118599061227e565b90600052602060002090601f01602090048101928261187b57600085556118c2565b82601f1061189457803560ff19168380011785556118c2565b828001600101855582156118c2579182015b828111156118c15782358255916020019190600101906118a6565b5b5090506118cf9190611959565b5090565b8280546118df9061227e565b90600052602060002090601f0160209004810192826119015760008555611948565b82601f1061191a57805160ff1916838001178555611948565b82800160010185558215611948579182015b8281111561194757825182559160200191906001019061192c565b5b5090506119559190611959565b5090565b5b8082111561197257600081600090555060010161195a565b5090565b6000604051905090565b600080fd5b600080fd5b6000819050919050565b61199d8161198a565b81146119a857600080fd5b50565b6000813590506119ba81611994565b92915050565b600080604083850312156119d7576119d6611980565b5b60006119e5858286016119ab565b92505060206119f6858286016119ab565b9150509250929050565b600073ffffffffffffffffffffffffffffffffffffffff82169050919050565b6000611a2b82611a00565b9050919050565b611a3b81611a20565b8114611a4657600080fd5b50565b600081359050611a5881611a32565b92915050565b60008060408385031215611a7557611a74611980565b5b6000611a8385828601611a49565b9250506020611a94858286016119ab565b9150509250929050565b600080600060608486031215611ab757611ab6611980565b5b6000611ac586828701611a49565b9350506020611ad686828701611a49565b9250506040611ae7868287016119ab565b9150509250925092565b600060208284031215611b0757611b06611980565b5b6000611b15848285016119ab565b91505092915050565b611b2781611a20565b82525050565b6000602082019050611b426000830184611b1e565b92915050565b600080fd5b600080fd5b6000601f19601f8301169050919050565b7f4e487b7100000000000000000000000000000000000000000000000000000000600052604160045260246000fd5b611b9b82611b52565b810181811067ffffffffffffffff82111715611bba57611bb9611b63565b5b80604052505050565b6000611bcd611976565b9050611bd98282611b92565b919050565b600067ffffffffffffffff821115611bf957611bf8611b63565b5b611c0282611b52565b9050602081019050919050565b82818337600083830152505050565b6000611c31611c2c84611bde565b611bc3565b905082815260208101848484011115611c4d57611c4c611b4d565b5b611c58848285611c0f565b509392505050565b600082601f830112611c7557611c74611b48565b5b8135611c85848260208601611c1e565b91505092915050565b600060208284031215611ca457611ca3611980565b5b600082013567ffffffffffffffff811115611cc257611cc1611985565b5b611cce84828501611c60565b91505092915050565b600060208284031215611ced57611cec611980565b5b6000611cfb84828501611a49565b91505092915050565b600081519050919050565b600082825260208201905092915050565b6000819050602082019050919050565b611d398161198a565b82525050565b6000611d4b8383611d30565b60208301905092915050565b6000602082019050919050565b6000611d6f82611d04565b611d798185611d0f565b9350611d8483611d20565b8060005b83811015611db5578151611d9c8882611d3f565b9750611da783611d57565b925050600181019050611d88565b5085935050505092915050565b60006020820190508181036000830152611ddc8184611d64565b905092915050565b611ded8161198a565b82525050565b6000602082019050611e086000830184611de4565b92915050565b60008115159050919050565b611e2381611e0e565b82525050565b6000602082019050611e3e6000830184611e1a565b92915050565b600081519050919050565b600082825260208201905092915050565b60005b83811015611e7e578082015181840152602081019050611e63565b83811115611e8d576000848401525b50505050565b6000611e9e82611e44565b611ea88185611e4f565b9350611eb8818560208601611e60565b611ec181611b52565b840191505092915050565b600063ffffffff82169050919050565b611ee581611ecc565b82525050565b600061ffff82169050919050565b611f0281611eeb565b82525050565b600060c0820190508181036000830152611f228189611e93565b9050611f316020830188611de4565b611f3e6040830187611edc565b611f4b6060830186611edc565b611f586080830185611ef9565b611f6560a0830184611ef9565b979650505050505050565b600080fd5b600080fd5b60008083601f840112611f9057611f8f611b48565b5b8235905067ffffffffffffffff811115611fad57611fac611f70565b5b602083019150836001820283011115611fc957611fc8611f75565b5b9250929050565b600080600060408486031215611fe957611fe8611980565b5b6000611ff7868287016119ab565b935050602084013567ffffffffffffffff81111561201857612017611985565b5b61202486828701611f7a565b92509250509250925092565b61203981611e0e565b811461204457600080fd5b50565b60008151905061205681612030565b92915050565b60008151905061206b81611994565b92915050565b6000806000806000806000806000806101408b8d03121561209557612094611980565b5b60006120a38d828e01612047565b9a505060206120b48d828e01612047565b99505060406120c58d828e0161205c565b98505060606120d68d828e0161205c565b97505060806120e78d828e0161205c565b96505060a06120f88d828e0161205c565b95505060c06121098d828e0161205c565b94505060e061211a8d828e0161205c565b93505061010061212c8d828e0161205c565b92505061012061213e8d828e0161205c565b9150509295989b9194979a5092959850565b7f4e487b7100000000000000000000000000000000000000000000000000000000600052603260045260246000fd5b7f4e487b7100000000000000000000000000000000000000000000000000000000600052601160045260246000fd5b60006121b98261198a565b91507fffffffffffffffffffffffffffffffffffffffffffffffffffffffffffffffff8214156121ec576121eb61217f565b5b600182019050919050565b600061220282611eeb565b915061ffff8214156122175761221661217f565b5b600182019050919050565b600061222d82611ecc565b915063ffffffff8214156122445761224361217f565b5b600182019050919050565b7f4e487b7100000000000000000000000000000000000000000000000000000000600052602260045260246000fd5b6000600282049050600182168061229657607f821691505b602082108114156122aa576122a961224f565b5b50919050565b7f4e487b7100000000000000000000000000000000000000000000000000000000600052601260045260246000fd5b60006122ea8261198a565b91506122f58361198a565b925082612305576123046122b0565b5b828206905092915050565b600061231b8261198a565b91506123268361198a565b9250827fffffffffffffffffffffffffffffffffffffffffffffffffffffffffffffffff0382111561235b5761235a61217f565b5b828201905092915050565b60006123718261198a565b915061237c8361198a565b92508261238c5761238b6122b0565b5b828204905092915050565b60006123a28261198a565b915060008214156123b6576123b561217f565b5b600182039050919050565b600081905092915050565b60006123d782611e44565b6123e181856123c1565b93506123f1818560208601611e60565b80840191505092915050565b600061240982846123cc565b915081905092915050565b600061241f8261198a565b915061242a8361198a565b92508282101561243d5761243c61217f565b5b828203905092915050565b600060608201905061245d6000830186611de4565b818103602083015261246f8185611e93565b905061247e6040830184611de4565b949350505050565b6000819050919050565b6124a161249c8261198a565b612486565b82525050565b60008160601b9050919050565b60006124bf826124a7565b9050919050565b60006124d1826124b4565b9050919050565b6124e96124e482611a20565b6124c6565b82525050565b60006124fb8286612490565b60208201915061250b82856124d8565b60148201915061251b8284612490565b60208201915081905094935050505056fea26469706673582212207ffff1aa071c47b6ccc3446bb4df79f40f2f026a40942de00fc96ac66f12c71e64736f6c634300080a0033",
  "immutableReferences": {},
  "source": "pragma solidity >0.4.24;\r\n\r\nimport \"./carOwnership.sol\";\r\n\r\ncontract CarsProject is CarOwnership\r\n    {\r\n\r\n    }",
  "sourcePath": "C:\\Users\\prafa\\Desktop\\cripto\\cars_project\\contracts\\CarsProject.sol",
  "compiler": {
    "name": "solc",
    "version": "0.8.10+commit.fc410830.Emscripten.clang"
  },
  "schemaVersion": "3.4.3",
  "updatedAt": "2022-05-28T15:14:35.222Z",
  "networkType": "ethereum",
  "devdoc": {
    "kind": "dev",
    "methods": {
      "isOwner()": {
        "returns": {
          "_0": "true if `msg.sender` is the owner of the contract."
        }
      },
      "owner()": {
        "returns": {
          "_0": "the address of the owner."
        }
      },
      "renounceOwnership()": {
        "details": "Allows the current owner to relinquish control of the contract."
      },
      "transferOwnership(address)": {
        "details": "Allows the current owner to transfer control of the contract to a newOwner.",
        "params": {
          "newOwner": "The address to transfer ownership to."
        }
      }
    },
    "version": 1
  },
  "userdoc": {
    "kind": "user",
    "methods": {
      "renounceOwnership()": {
        "notice": "Renouncing to ownership will leave the contract without an owner. It will not be possible to call the functions with the `onlyOwner` modifier anymore."
      }
    },
    "version": 1
  }
}